{
  "contractName": "Inventory",
  "abi": [
    {
      "constant": false,
      "inputs": [
        {
          "name": "_asset",
          "type": "address"
        },
        {
          "name": "value",
          "type": "uint256"
        }
      ],
      "name": "withdrawal",
      "outputs": [],
      "payable": false,
      "stateMutability": "nonpayable",
      "type": "function"
    },
    {
      "constant": true,
      "inputs": [],
      "name": "market",
      "outputs": [
        {
          "name": "",
          "type": "address"
        }
      ],
      "payable": false,
      "stateMutability": "view",
      "type": "function"
    },
    {
      "constant": true,
      "inputs": [],
      "name": "merchant",
      "outputs": [
        {
          "name": "",
          "type": "address"
        }
      ],
      "payable": false,
      "stateMutability": "view",
      "type": "function"
    },
    {
      "constant": false,
      "inputs": [],
      "name": "etherSaver",
      "outputs": [],
      "payable": false,
      "stateMutability": "nonpayable",
      "type": "function"
    },
    {
      "constant": false,
      "inputs": [
        {
          "name": "_to",
          "type": "address"
        },
        {
          "name": "_asset",
          "type": "address"
        },
        {
          "name": "_value",
          "type": "uint256"
        }
      ],
      "name": "transfer",
      "outputs": [],
      "payable": false,
      "stateMutability": "nonpayable",
      "type": "function"
    },
    {
      "inputs": [
        {
          "name": "_merchant",
          "type": "address"
        }
      ],
      "payable": false,
      "stateMutability": "nonpayable",
      "type": "constructor"
    }
  ],
  "bytecode": "0x6060604052341561000f57600080fd5b60405160208061063783398101604052808051906020019091905050336000806101000a81548173ffffffffffffffffffffffffffffffffffffffff021916908373ffffffffffffffffffffffffffffffffffffffff16021790555080600160006101000a81548173ffffffffffffffffffffffffffffffffffffffff021916908373ffffffffffffffffffffffffffffffffffffffff1602179055505061057b806100bc6000396000f30060606040526004361061006d576000357c0100000000000000000000000000000000000000000000000000000000900463ffffffff1680635a6b26ba1461007257806380f55605146100b4578063a5ff765114610109578063a9c8fe701461015e578063beabacc814610173575b600080fd5b341561007d57600080fd5b6100b2600480803573ffffffffffffffffffffffffffffffffffffffff169060200190919080359060200190919050506101d4565b005b34156100bf57600080fd5b6100c7610322565b604051808273ffffffffffffffffffffffffffffffffffffffff1673ffffffffffffffffffffffffffffffffffffffff16815260200191505060405180910390f35b341561011457600080fd5b61011c610347565b604051808273ffffffffffffffffffffffffffffffffffffffff1673ffffffffffffffffffffffffffffffffffffffff16815260200191505060405180910390f35b341561016957600080fd5b61017161036d565b005b341561017e57600080fd5b6101d2600480803573ffffffffffffffffffffffffffffffffffffffff1690602001909190803573ffffffffffffffffffffffffffffffffffffffff16906020019091908035906020019091905050610422565b005b60008060009054906101000a900473ffffffffffffffffffffffffffffffffffffffff1673ffffffffffffffffffffffffffffffffffffffff163373ffffffffffffffffffffffffffffffffffffffff1614151561023157600080fd5b8290508073ffffffffffffffffffffffffffffffffffffffff1663a9059cbb600160009054906101000a900473ffffffffffffffffffffffffffffffffffffffff16846000604051602001526040518363ffffffff167c0100000000000000000000000000000000000000000000000000000000028152600401808373ffffffffffffffffffffffffffffffffffffffff1673ffffffffffffffffffffffffffffffffffffffff16815260200182815260200192505050602060405180830381600087803b151561030157600080fd5b6102c65a03f1151561031257600080fd5b5050506040518051905050505050565b6000809054906101000a900473ffffffffffffffffffffffffffffffffffffffff1681565b600160009054906101000a900473ffffffffffffffffffffffffffffffffffffffff1681565b600160009054906101000a900473ffffffffffffffffffffffffffffffffffffffff1673ffffffffffffffffffffffffffffffffffffffff163373ffffffffffffffffffffffffffffffffffffffff161415156103c957600080fd5b3373ffffffffffffffffffffffffffffffffffffffff166108fc3073ffffffffffffffffffffffffffffffffffffffff16319081150290604051600060405180830381858888f19350505050151561042057600080fd5b565b60008060009054906101000a900473ffffffffffffffffffffffffffffffffffffffff1673ffffffffffffffffffffffffffffffffffffffff163373ffffffffffffffffffffffffffffffffffffffff1614151561047f57600080fd5b8290508073ffffffffffffffffffffffffffffffffffffffff1663a9059cbb85846000604051602001526040518363ffffffff167c0100000000000000000000000000000000000000000000000000000000028152600401808373ffffffffffffffffffffffffffffffffffffffff1673ffffffffffffffffffffffffffffffffffffffff16815260200182815260200192505050602060405180830381600087803b151561052d57600080fd5b6102c65a03f1151561053e57600080fd5b5050506040518051905050505050505600a165627a7a72305820d9ed7824ce486628d04afd60b9472f75fa0a57a7ccd105139c9e5cb01b6670610029",
  "source": "pragma solidity ^0.4.12;\n\nimport \"./Token/EIP20Interface.sol\";\nimport \"./Market.sol\";\n\n// The Inventory holds all of the assets a merchant wishes to sell or trade\ncontract Inventory {\n    Market public market; // Origin marketplace\n    address public merchant; // Owner of this inventory\n\n    modifier onlyMerchant {\n        require(msg.sender == merchant);\n        _;\n    }\n\n    modifier onlyMarket {\n        require(msg.sender == address(market));\n        _;\n    }\n\n    modifier multiAuth {\n        require(msg.sender == address(market) || msg.sender == merchant);\n        _;\n    }\n\n    // Inventory constructor\n    function Inventory (address _merchant) public {\n        market = Market(msg.sender);\n        merchant = _merchant;\n    }\n    \n    // Allow the merchant to withdrawal assets from inventory\n    // Also allows market to fulfill trades\n    function withdrawal (address _asset, uint256 value) public onlyMarket {\n        EIP20Interface asset = EIP20Interface(_asset);\n        asset.transfer(merchant, value);\n    }\n    \n    function transfer (address _to, address _asset, uint256 _value) public onlyMarket {\n        EIP20Interface asset = EIP20Interface(_asset);\n        asset.transfer(_to, _value);\n    }\n\n    // Retreive accidental ether sent to inventory\n    function etherSaver () public onlyMerchant {\n        msg.sender.transfer(this.balance);\n    }\n}\n",
  "sourcePath": "/Users/matt/Documents/LootSafe/LootSafe.Market.module/contracts/Inventory.sol",
  "compiler": {
    "name": "solc",
    "version": "0.4.18+commit.9cf6e910.Emscripten.clang"
  },
  "schemaVersion": "1.0.1",
  "updatedAt": "2018-02-08T06:07:54.101Z"
}