{
  "contractName": "Market",
  "abi": [
    {
      "constant": true,
      "inputs": [
        {
          "name": "",
          "type": "bytes32"
        }
      ],
      "name": "trades",
      "outputs": [
        {
          "name": "offer",
          "type": "address"
        },
        {
          "name": "request",
          "type": "address"
        },
        {
          "name": "offerValue",
          "type": "uint256"
        },
        {
          "name": "requestValue",
          "type": "uint256"
        },
        {
          "name": "merchant",
          "type": "address"
        },
        {
          "name": "customer",
          "type": "address"
        },
        {
          "name": "settleTime",
          "type": "uint256"
        },
        {
          "name": "settled",
          "type": "bool"
        }
      ],
      "payable": false,
      "stateMutability": "view",
      "type": "function"
    },
    {
      "constant": true,
      "inputs": [],
      "name": "getMyInventory",
      "outputs": [
        {
          "name": "inventory",
          "type": "address"
        }
      ],
      "payable": false,
      "stateMutability": "view",
      "type": "function"
    },
    {
      "constant": false,
      "inputs": [
        {
          "name": "_offer",
          "type": "address"
        },
        {
          "name": "_request",
          "type": "address"
        },
        {
          "name": "_offerValue",
          "type": "uint256"
        },
        {
          "name": "_requestValue",
          "type": "uint256"
        }
      ],
      "name": "makeOffer",
      "outputs": [],
      "payable": false,
      "stateMutability": "nonpayable",
      "type": "function"
    },
    {
      "constant": false,
      "inputs": [
        {
          "name": "asset",
          "type": "address"
        },
        {
          "name": "value",
          "type": "uint256"
        }
      ],
      "name": "withdrawal",
      "outputs": [],
      "payable": false,
      "stateMutability": "nonpayable",
      "type": "function"
    },
    {
      "constant": true,
      "inputs": [],
      "name": "marketEvents",
      "outputs": [
        {
          "name": "",
          "type": "address"
        }
      ],
      "payable": false,
      "stateMutability": "view",
      "type": "function"
    },
    {
      "constant": true,
      "inputs": [
        {
          "name": "",
          "type": "address"
        }
      ],
      "name": "inventories",
      "outputs": [
        {
          "name": "",
          "type": "address"
        }
      ],
      "payable": false,
      "stateMutability": "view",
      "type": "function"
    },
    {
      "constant": true,
      "inputs": [],
      "name": "owner",
      "outputs": [
        {
          "name": "",
          "type": "address"
        }
      ],
      "payable": false,
      "stateMutability": "view",
      "type": "function"
    },
    {
      "constant": false,
      "inputs": [
        {
          "name": "tradeId",
          "type": "bytes32"
        }
      ],
      "name": "settleTrade",
      "outputs": [],
      "payable": false,
      "stateMutability": "nonpayable",
      "type": "function"
    },
    {
      "constant": true,
      "inputs": [
        {
          "name": "",
          "type": "address"
        },
        {
          "name": "",
          "type": "uint256"
        }
      ],
      "name": "tradesByMerchant",
      "outputs": [
        {
          "name": "",
          "type": "bytes32"
        }
      ],
      "payable": false,
      "stateMutability": "view",
      "type": "function"
    },
    {
      "constant": true,
      "inputs": [
        {
          "name": "tradeId",
          "type": "bytes32"
        }
      ],
      "name": "getTrade",
      "outputs": [
        {
          "name": "offer",
          "type": "address"
        },
        {
          "name": "request",
          "type": "address"
        },
        {
          "name": "offerValue",
          "type": "uint256"
        },
        {
          "name": "requestValue",
          "type": "uint256"
        },
        {
          "name": "merchant",
          "type": "address"
        },
        {
          "name": "customer",
          "type": "address"
        },
        {
          "name": "settleTime",
          "type": "uint256"
        },
        {
          "name": "settled",
          "type": "bool"
        }
      ],
      "payable": false,
      "stateMutability": "view",
      "type": "function"
    },
    {
      "constant": true,
      "inputs": [
        {
          "name": "merchant",
          "type": "address"
        }
      ],
      "name": "getTradesByMerchant",
      "outputs": [
        {
          "name": "_trades",
          "type": "bytes32[]"
        }
      ],
      "payable": false,
      "stateMutability": "view",
      "type": "function"
    },
    {
      "constant": false,
      "inputs": [
        {
          "name": "tradeId",
          "type": "bytes32"
        }
      ],
      "name": "fillOffer",
      "outputs": [],
      "payable": false,
      "stateMutability": "nonpayable",
      "type": "function"
    },
    {
      "constant": true,
      "inputs": [],
      "name": "getTrades",
      "outputs": [
        {
          "name": "_trades",
          "type": "bytes32[]"
        }
      ],
      "payable": false,
      "stateMutability": "view",
      "type": "function"
    },
    {
      "inputs": [],
      "payable": false,
      "stateMutability": "nonpayable",
      "type": "constructor"
    },
    {
      "payable": true,
      "stateMutability": "payable",
      "type": "fallback"
    }
  ],
  "bytecode": "0x606060405234156200001057600080fd5b336000806101000a81548173ffffffffffffffffffffffffffffffffffffffff021916908373ffffffffffffffffffffffffffffffffffffffff1602179055506200005a620000b7565b604051809103906000f08015156200007157600080fd5b600160006101000a81548173ffffffffffffffffffffffffffffffffffffffff021916908373ffffffffffffffffffffffffffffffffffffffff160217905550620000c8565b6040516107e38062002cb383390190565b612bdb80620000d86000396000f3006060604052600436106100c4576000357c0100000000000000000000000000000000000000000000000000000000900463ffffffff1680621624201461038e57806327457b3b146104ae5780632e35f796146105035780635a6b26ba1461056d5780635c24f112146105af578063698aa65c146106045780638da5cb5b1461067d5780639d2a693f146106d25780639dd56543146106f9578063a3b1379914610757578063bf08eec914610877578063df4f9ea814610905578063e43372e91461092c575b6000341415156100d357600080fd5b6000600260003373ffffffffffffffffffffffffffffffffffffffff1673ffffffffffffffffffffffffffffffffffffffff16815260200190815260200160002060009054906101000a900473ffffffffffffffffffffffffffffffffffffffff1673ffffffffffffffffffffffffffffffffffffffff1614151561015757600080fd5b33610160612463565b808273ffffffffffffffffffffffffffffffffffffffff1673ffffffffffffffffffffffffffffffffffffffff168152602001915050604051809103906000f08015156101ac57600080fd5b600260003373ffffffffffffffffffffffffffffffffffffffff1673ffffffffffffffffffffffffffffffffffffffff16815260200190815260200160002060006101000a81548173ffffffffffffffffffffffffffffffffffffffff021916908373ffffffffffffffffffffffffffffffffffffffff160217905550600160009054906101000a900473ffffffffffffffffffffffffffffffffffffffff1673ffffffffffffffffffffffffffffffffffffffff166397020b3633600260003373ffffffffffffffffffffffffffffffffffffffff1673ffffffffffffffffffffffffffffffffffffffff16815260200190815260200160002060009054906101000a900473ffffffffffffffffffffffffffffffffffffffff166040518363ffffffff167c0100000000000000000000000000000000000000000000000000000000028152600401808373ffffffffffffffffffffffffffffffffffffffff1673ffffffffffffffffffffffffffffffffffffffff1681526020018273ffffffffffffffffffffffffffffffffffffffff1673ffffffffffffffffffffffffffffffffffffffff16815260200192505050600060405180830381600087803b151561037857600080fd5b6102c65a03f1151561038957600080fd5b505050005b341561039957600080fd5b6103b3600480803560001916906020019091905050610996565b604051808973ffffffffffffffffffffffffffffffffffffffff1673ffffffffffffffffffffffffffffffffffffffff1681526020018873ffffffffffffffffffffffffffffffffffffffff1673ffffffffffffffffffffffffffffffffffffffff1681526020018781526020018681526020018573ffffffffffffffffffffffffffffffffffffffff1673ffffffffffffffffffffffffffffffffffffffff1681526020018473ffffffffffffffffffffffffffffffffffffffff1673ffffffffffffffffffffffffffffffffffffffff168152602001838152602001821515151581526020019850505050505050505060405180910390f35b34156104b957600080fd5b6104c1610a6b565b604051808273ffffffffffffffffffffffffffffffffffffffff1673ffffffffffffffffffffffffffffffffffffffff16815260200191505060405180910390f35b341561050e57600080fd5b61056b600480803573ffffffffffffffffffffffffffffffffffffffff1690602001909190803573ffffffffffffffffffffffffffffffffffffffff16906020019091908035906020019091908035906020019091905050610ad2565b005b341561057857600080fd5b6105ad600480803573ffffffffffffffffffffffffffffffffffffffff16906020019091908035906020019091905050610f46565b005b34156105ba57600080fd5b6105c26111a0565b604051808273ffffffffffffffffffffffffffffffffffffffff1673ffffffffffffffffffffffffffffffffffffffff16815260200191505060405180910390f35b341561060f57600080fd5b61063b600480803573ffffffffffffffffffffffffffffffffffffffff169060200190919050506111c6565b604051808273ffffffffffffffffffffffffffffffffffffffff1673ffffffffffffffffffffffffffffffffffffffff16815260200191505060405180910390f35b341561068857600080fd5b6106906111f9565b604051808273ffffffffffffffffffffffffffffffffffffffff1673ffffffffffffffffffffffffffffffffffffffff16815260200191505060405180910390f35b34156106dd57600080fd5b6106f760048080356000191690602001909190505061121e565b005b341561070457600080fd5b610739600480803573ffffffffffffffffffffffffffffffffffffffff16906020019091908035906020019091905050611517565b60405180826000191660001916815260200191505060405180910390f35b341561076257600080fd5b61077c600480803560001916906020019091905050611548565b604051808973ffffffffffffffffffffffffffffffffffffffff1673ffffffffffffffffffffffffffffffffffffffff1681526020018873ffffffffffffffffffffffffffffffffffffffff1673ffffffffffffffffffffffffffffffffffffffff1681526020018781526020018681526020018573ffffffffffffffffffffffffffffffffffffffff1673ffffffffffffffffffffffffffffffffffffffff1681526020018473ffffffffffffffffffffffffffffffffffffffff1673ffffffffffffffffffffffffffffffffffffffff168152602001838152602001821515151581526020019850505050505050505060405180910390f35b341561088257600080fd5b6108ae600480803573ffffffffffffffffffffffffffffffffffffffff1690602001909190505061175b565b6040518080602001828103825283818151815260200191508051906020019060200280838360005b838110156108f15780820151818401526020810190506108d6565b505050509050019250505060405180910390f35b341561091057600080fd5b61092a6004808035600019169060200190919050506117fc565b005b341561093757600080fd5b61093f611f7e565b6040518080602001828103825283818151815260200191508051906020019060200280838360005b83811015610982578082015181840152602081019050610967565b505050509050019250505060405180910390f35b60036020528060005260406000206000915090508060000160009054906101000a900473ffffffffffffffffffffffffffffffffffffffff16908060010160009054906101000a900473ffffffffffffffffffffffffffffffffffffffff16908060020154908060030154908060040160009054906101000a900473ffffffffffffffffffffffffffffffffffffffff16908060050160009054906101000a900473ffffffffffffffffffffffffffffffffffffffff16908060060154908060070160009054906101000a900460ff16905088565b6000600260003373ffffffffffffffffffffffffffffffffffffffff1673ffffffffffffffffffffffffffffffffffffffff16815260200190815260200160002060009054906101000a900473ffffffffffffffffffffffffffffffffffffffff16905090565b6000610adc612473565b600080610aeb62145859611fe0565b6040518082815260200191505060405180910390209350610100604051908101604052808973ffffffffffffffffffffffffffffffffffffffff1681526020018873ffffffffffffffffffffffffffffffffffffffff1681526020018781526020018681526020013373ffffffffffffffffffffffffffffffffffffffff168152602001600073ffffffffffffffffffffffffffffffffffffffff16815260200160008152602001600015158152509250610ba68833612000565b9150610bb28833612127565b905085610bbf838361242c565b10151515610bcc57600080fd5b60058054806001018281610be09190612513565b9160005260206000209001600086909190915090600019169055508260036000866000191660001916815260200190815260200160002060008201518160000160006101000a81548173ffffffffffffffffffffffffffffffffffffffff021916908373ffffffffffffffffffffffffffffffffffffffff16021790555060208201518160010160006101000a81548173ffffffffffffffffffffffffffffffffffffffff021916908373ffffffffffffffffffffffffffffffffffffffff160217905550604082015181600201556060820151816003015560808201518160040160006101000a81548173ffffffffffffffffffffffffffffffffffffffff021916908373ffffffffffffffffffffffffffffffffffffffff16021790555060a08201518160050160006101000a81548173ffffffffffffffffffffffffffffffffffffffff021916908373ffffffffffffffffffffffffffffffffffffffff16021790555060c0820151816006015560e08201518160070160006101000a81548160ff021916908315150217905550905050600460003373ffffffffffffffffffffffffffffffffffffffff1673ffffffffffffffffffffffffffffffffffffffff1681526020019081526020016000208054806001018281610dc59190612513565b916000526020600020900160008690919091509060001916905550600160009054906101000a900473ffffffffffffffffffffffffffffffffffffffff1673ffffffffffffffffffffffffffffffffffffffff166342885d11846000015185602001518660400151876060015188608001516040518663ffffffff167c0100000000000000000000000000000000000000000000000000000000028152600401808673ffffffffffffffffffffffffffffffffffffffff1673ffffffffffffffffffffffffffffffffffffffff1681526020018573ffffffffffffffffffffffffffffffffffffffff1673ffffffffffffffffffffffffffffffffffffffff1681526020018481526020018381526020018273ffffffffffffffffffffffffffffffffffffffff1673ffffffffffffffffffffffffffffffffffffffff16815260200195505050505050600060405180830381600087803b1515610f2857600080fd5b6102c65a03f11515610f3957600080fd5b5050505050505050505050565b600080610f538433612127565b9150610f5f8433612000565b905082610f6c828461242c565b10151515610f7957600080fd5b600260003373ffffffffffffffffffffffffffffffffffffffff1673ffffffffffffffffffffffffffffffffffffffff16815260200190815260200160002060009054906101000a900473ffffffffffffffffffffffffffffffffffffffff1673ffffffffffffffffffffffffffffffffffffffff16635a6b26ba85856040518363ffffffff167c0100000000000000000000000000000000000000000000000000000000028152600401808373ffffffffffffffffffffffffffffffffffffffff1673ffffffffffffffffffffffffffffffffffffffff16815260200182815260200192505050600060405180830381600087803b151561107a57600080fd5b6102c65a03f1151561108b57600080fd5b505050600160009054906101000a900473ffffffffffffffffffffffffffffffffffffffff1673ffffffffffffffffffffffffffffffffffffffff1663e568f8153386866040518463ffffffff167c0100000000000000000000000000000000000000000000000000000000028152600401808473ffffffffffffffffffffffffffffffffffffffff1673ffffffffffffffffffffffffffffffffffffffff1681526020018373ffffffffffffffffffffffffffffffffffffffff1673ffffffffffffffffffffffffffffffffffffffff1681526020018281526020019350505050600060405180830381600087803b151561118657600080fd5b6102c65a03f1151561119757600080fd5b50505050505050565b600160009054906101000a900473ffffffffffffffffffffffffffffffffffffffff1681565b60026020528060005260406000206000915054906101000a900473ffffffffffffffffffffffffffffffffffffffff1681565b6000809054906101000a900473ffffffffffffffffffffffffffffffffffffffff1681565b611226612473565b60036000836000191660001916815260200190815260200160002061010060405190810160405290816000820160009054906101000a900473ffffffffffffffffffffffffffffffffffffffff1673ffffffffffffffffffffffffffffffffffffffff1673ffffffffffffffffffffffffffffffffffffffff1681526020016001820160009054906101000a900473ffffffffffffffffffffffffffffffffffffffff1673ffffffffffffffffffffffffffffffffffffffff1673ffffffffffffffffffffffffffffffffffffffff16815260200160028201548152602001600382015481526020016004820160009054906101000a900473ffffffffffffffffffffffffffffffffffffffff1673ffffffffffffffffffffffffffffffffffffffff1673ffffffffffffffffffffffffffffffffffffffff1681526020016005820160009054906101000a900473ffffffffffffffffffffffffffffffffffffffff1673ffffffffffffffffffffffffffffffffffffffff1673ffffffffffffffffffffffffffffffffffffffff168152602001600682015481526020016007820160009054906101000a900460ff1615151515815250509050806080015173ffffffffffffffffffffffffffffffffffffffff163373ffffffffffffffffffffffffffffffffffffffff1614151561141f57600080fd5b60018160e0019015159081151581525050600160036000846000191660001916815260200190815260200160002060070160006101000a81548160ff021916908315150217905550600160009054906101000a900473ffffffffffffffffffffffffffffffffffffffff1673ffffffffffffffffffffffffffffffffffffffff166340f77e1d836040518263ffffffff167c0100000000000000000000000000000000000000000000000000000000028152600401808260001916600019168152602001915050600060405180830381600087803b15156114ff57600080fd5b6102c65a03f1151561151057600080fd5b5050505050565b60046020528160005260406000208181548110151561153257fe5b9060005260206000209001600091509150505481565b60008060008060008060008061155c612473565b600360008b6000191660001916815260200190815260200160002061010060405190810160405290816000820160009054906101000a900473ffffffffffffffffffffffffffffffffffffffff1673ffffffffffffffffffffffffffffffffffffffff1673ffffffffffffffffffffffffffffffffffffffff1681526020016001820160009054906101000a900473ffffffffffffffffffffffffffffffffffffffff1673ffffffffffffffffffffffffffffffffffffffff1673ffffffffffffffffffffffffffffffffffffffff16815260200160028201548152602001600382015481526020016004820160009054906101000a900473ffffffffffffffffffffffffffffffffffffffff1673ffffffffffffffffffffffffffffffffffffffff1673ffffffffffffffffffffffffffffffffffffffff1681526020016005820160009054906101000a900473ffffffffffffffffffffffffffffffffffffffff1673ffffffffffffffffffffffffffffffffffffffff1673ffffffffffffffffffffffffffffffffffffffff168152602001600682015481526020016007820160009054906101000a900460ff1615151515815250509050806000015181602001518260400151836060015184608001518560a001518660c001518760e001519850985098509850985098509850985050919395975091939597565b61176361253f565b600460008373ffffffffffffffffffffffffffffffffffffffff1673ffffffffffffffffffffffffffffffffffffffff1681526020019081526020016000208054806020026020016040519081016040528092919081815260200182805480156117f057602002820191906000526020600020905b815460001916815260200190600101908083116117d8575b50505050509050919050565b611804612473565b60008060008060036000876000191660001916815260200190815260200160002061010060405190810160405290816000820160009054906101000a900473ffffffffffffffffffffffffffffffffffffffff1673ffffffffffffffffffffffffffffffffffffffff1673ffffffffffffffffffffffffffffffffffffffff1681526020016001820160009054906101000a900473ffffffffffffffffffffffffffffffffffffffff1673ffffffffffffffffffffffffffffffffffffffff1673ffffffffffffffffffffffffffffffffffffffff16815260200160028201548152602001600382015481526020016004820160009054906101000a900473ffffffffffffffffffffffffffffffffffffffff1673ffffffffffffffffffffffffffffffffffffffff1673ffffffffffffffffffffffffffffffffffffffff1681526020016005820160009054906101000a900473ffffffffffffffffffffffffffffffffffffffff1673ffffffffffffffffffffffffffffffffffffffff1673ffffffffffffffffffffffffffffffffffffffff168152602001600682015481526020016007820160009054906101000a900460ff16151515158152505094506119d3338660200151612000565b93506119e3856020015133612127565b925084606001516119f4858561242c565b10151515611a0157600080fd5b8460e00151151515611a1257600080fd5b60026000866080015173ffffffffffffffffffffffffffffffffffffffff1673ffffffffffffffffffffffffffffffffffffffff16815260200190815260200160002060009054906101000a900473ffffffffffffffffffffffffffffffffffffffff169150600260003373ffffffffffffffffffffffffffffffffffffffff1673ffffffffffffffffffffffffffffffffffffffff16815260200190815260200160002060009054906101000a900473ffffffffffffffffffffffffffffffffffffffff1690508173ffffffffffffffffffffffffffffffffffffffff1663beabacc833876000015188604001516040518463ffffffff167c0100000000000000000000000000000000000000000000000000000000028152600401808473ffffffffffffffffffffffffffffffffffffffff1673ffffffffffffffffffffffffffffffffffffffff1681526020018373ffffffffffffffffffffffffffffffffffffffff1673ffffffffffffffffffffffffffffffffffffffff1681526020018281526020019350505050600060405180830381600087803b1515611bb857600080fd5b6102c65a03f11515611bc957600080fd5b5050508073ffffffffffffffffffffffffffffffffffffffff1663beabacc88660800151876000015188604001516040518463ffffffff167c0100000000000000000000000000000000000000000000000000000000028152600401808473ffffffffffffffffffffffffffffffffffffffff1673ffffffffffffffffffffffffffffffffffffffff1681526020018373ffffffffffffffffffffffffffffffffffffffff1673ffffffffffffffffffffffffffffffffffffffff1681526020018281526020019350505050600060405180830381600087803b1515611cae57600080fd5b6102c65a03f11515611cbf57600080fd5b505050338560a0019073ffffffffffffffffffffffffffffffffffffffff16908173ffffffffffffffffffffffffffffffffffffffff168152505060018560e0019015159081151581525050428560c00181815250508460036000886000191660001916815260200190815260200160002060008201518160000160006101000a81548173ffffffffffffffffffffffffffffffffffffffff021916908373ffffffffffffffffffffffffffffffffffffffff16021790555060208201518160010160006101000a81548173ffffffffffffffffffffffffffffffffffffffff021916908373ffffffffffffffffffffffffffffffffffffffff160217905550604082015181600201556060820151816003015560808201518160040160006101000a81548173ffffffffffffffffffffffffffffffffffffffff021916908373ffffffffffffffffffffffffffffffffffffffff16021790555060a08201518160050160006101000a81548173ffffffffffffffffffffffffffffffffffffffff021916908373ffffffffffffffffffffffffffffffffffffffff16021790555060c0820151816006015560e08201518160070160006101000a81548160ff021916908315150217905550905050600160009054906101000a900473ffffffffffffffffffffffffffffffffffffffff1673ffffffffffffffffffffffffffffffffffffffff1663926b71df8733426040518463ffffffff167c01000000000000000000000000000000000000000000000000000000000281526004018084600019166000191681526020018373ffffffffffffffffffffffffffffffffffffffff1673ffffffffffffffffffffffffffffffffffffffff1681526020018281526020019350505050600060405180830381600087803b1515611f6257600080fd5b6102c65a03f11515611f7357600080fd5b505050505050505050565b611f8661253f565b6005805480602002602001604051908101604052809291908181526020018280548015611fd657602002820191906000526020600020905b81546000191681526020019060010190808311611fbe575b5050505050905090565b6000600182600143034060019004811515611ff757fe5b06019050919050565b60008273ffffffffffffffffffffffffffffffffffffffff166370a08231600260008573ffffffffffffffffffffffffffffffffffffffff1673ffffffffffffffffffffffffffffffffffffffff16815260200190815260200160002060009054906101000a900473ffffffffffffffffffffffffffffffffffffffff166000604051602001526040518263ffffffff167c0100000000000000000000000000000000000000000000000000000000028152600401808273ffffffffffffffffffffffffffffffffffffffff1673ffffffffffffffffffffffffffffffffffffffff168152602001915050602060405180830381600087803b151561210457600080fd5b6102c65a03f1151561211557600080fd5b50505060405180519050905092915050565b600061213161253f565b60008061213c612473565b600460008773ffffffffffffffffffffffffffffffffffffffff1673ffffffffffffffffffffffffffffffffffffffff1681526020019081526020016000208054806020026020016040519081016040528092919081815260200182805480156121c957602002820191906000526020600020905b815460001916815260200190600101908083116121b1575b5050505050935060008451111561241f57600091505b835182101561241e576003600085848151811015156121fa57fe5b906020019060200201516000191660001916815260200190815260200160002061010060405190810160405290816000820160009054906101000a900473ffffffffffffffffffffffffffffffffffffffff1673ffffffffffffffffffffffffffffffffffffffff1673ffffffffffffffffffffffffffffffffffffffff1681526020016001820160009054906101000a900473ffffffffffffffffffffffffffffffffffffffff1673ffffffffffffffffffffffffffffffffffffffff1673ffffffffffffffffffffffffffffffffffffffff16815260200160028201548152602001600382015481526020016004820160009054906101000a900473ffffffffffffffffffffffffffffffffffffffff1673ffffffffffffffffffffffffffffffffffffffff1673ffffffffffffffffffffffffffffffffffffffff1681526020016005820160009054906101000a900473ffffffffffffffffffffffffffffffffffffffff1673ffffffffffffffffffffffffffffffffffffffff1673ffffffffffffffffffffffffffffffffffffffff168152602001600682015481526020016007820160009054906101000a900460ff16151515158152505090508673ffffffffffffffffffffffffffffffffffffffff16816000015173ffffffffffffffffffffffffffffffffffffffff161480156123fb57508060e00151155b156124115761240e838260400151612445565b92505b81806001019250506121df565b5b8294505050505092915050565b600082821115151561243a57fe5b818303905092915050565b600080828401905083811015151561245957fe5b8091505092915050565b6040516106378061257983390190565b61010060405190810160405280600073ffffffffffffffffffffffffffffffffffffffff168152602001600073ffffffffffffffffffffffffffffffffffffffff1681526020016000815260200160008152602001600073ffffffffffffffffffffffffffffffffffffffff168152602001600073ffffffffffffffffffffffffffffffffffffffff168152602001600081526020016000151581525090565b81548183558181151161253a578183600052602060002091820191016125399190612553565b5b505050565b602060405190810160405280600081525090565b61257591905b80821115612571576000816000905550600101612559565b5090565b9056006060604052341561000f57600080fd5b60405160208061063783398101604052808051906020019091905050336000806101000a81548173ffffffffffffffffffffffffffffffffffffffff021916908373ffffffffffffffffffffffffffffffffffffffff16021790555080600160006101000a81548173ffffffffffffffffffffffffffffffffffffffff021916908373ffffffffffffffffffffffffffffffffffffffff1602179055505061057b806100bc6000396000f30060606040526004361061006d576000357c0100000000000000000000000000000000000000000000000000000000900463ffffffff1680635a6b26ba1461007257806380f55605146100b4578063a5ff765114610109578063a9c8fe701461015e578063beabacc814610173575b600080fd5b341561007d57600080fd5b6100b2600480803573ffffffffffffffffffffffffffffffffffffffff169060200190919080359060200190919050506101d4565b005b34156100bf57600080fd5b6100c7610322565b604051808273ffffffffffffffffffffffffffffffffffffffff1673ffffffffffffffffffffffffffffffffffffffff16815260200191505060405180910390f35b341561011457600080fd5b61011c610347565b604051808273ffffffffffffffffffffffffffffffffffffffff1673ffffffffffffffffffffffffffffffffffffffff16815260200191505060405180910390f35b341561016957600080fd5b61017161036d565b005b341561017e57600080fd5b6101d2600480803573ffffffffffffffffffffffffffffffffffffffff1690602001909190803573ffffffffffffffffffffffffffffffffffffffff16906020019091908035906020019091905050610422565b005b60008060009054906101000a900473ffffffffffffffffffffffffffffffffffffffff1673ffffffffffffffffffffffffffffffffffffffff163373ffffffffffffffffffffffffffffffffffffffff1614151561023157600080fd5b8290508073ffffffffffffffffffffffffffffffffffffffff1663a9059cbb600160009054906101000a900473ffffffffffffffffffffffffffffffffffffffff16846000604051602001526040518363ffffffff167c0100000000000000000000000000000000000000000000000000000000028152600401808373ffffffffffffffffffffffffffffffffffffffff1673ffffffffffffffffffffffffffffffffffffffff16815260200182815260200192505050602060405180830381600087803b151561030157600080fd5b6102c65a03f1151561031257600080fd5b5050506040518051905050505050565b6000809054906101000a900473ffffffffffffffffffffffffffffffffffffffff1681565b600160009054906101000a900473ffffffffffffffffffffffffffffffffffffffff1681565b600160009054906101000a900473ffffffffffffffffffffffffffffffffffffffff1673ffffffffffffffffffffffffffffffffffffffff163373ffffffffffffffffffffffffffffffffffffffff161415156103c957600080fd5b3373ffffffffffffffffffffffffffffffffffffffff166108fc3073ffffffffffffffffffffffffffffffffffffffff16319081150290604051600060405180830381858888f19350505050151561042057600080fd5b565b60008060009054906101000a900473ffffffffffffffffffffffffffffffffffffffff1673ffffffffffffffffffffffffffffffffffffffff163373ffffffffffffffffffffffffffffffffffffffff1614151561047f57600080fd5b8290508073ffffffffffffffffffffffffffffffffffffffff1663a9059cbb85846000604051602001526040518363ffffffff167c0100000000000000000000000000000000000000000000000000000000028152600401808373ffffffffffffffffffffffffffffffffffffffff1673ffffffffffffffffffffffffffffffffffffffff16815260200182815260200192505050602060405180830381600087803b151561052d57600080fd5b6102c65a03f1151561053e57600080fd5b5050506040518051905050505050505600a165627a7a72305820d9ed7824ce486628d04afd60b9472f75fa0a57a7ccd105139c9e5cb01b6670610029a165627a7a7230582070df4ea6985fbe0c14ee1b98b9e3391633e3cac81c0482ed6771decf2e9c25c400296060604052341561000f57600080fd5b336000806101000a81548173ffffffffffffffffffffffffffffffffffffffff021916908373ffffffffffffffffffffffffffffffffffffffff1602179055506107858061005e6000396000f300606060405260043610610078576000357c0100000000000000000000000000000000000000000000000000000000900463ffffffff16806340f77e1d1461007d57806342885d11146100a457806380f556051461012d578063926b71df1461018257806397020b36146101d1578063e568f81514610229575b600080fd5b341561008857600080fd5b6100a260048080356000191690602001909190505061028a565b005b34156100af57600080fd5b61012b600480803573ffffffffffffffffffffffffffffffffffffffff1690602001909190803573ffffffffffffffffffffffffffffffffffffffff1690602001909190803590602001909190803590602001909190803573ffffffffffffffffffffffffffffffffffffffff16906020019091905050610327565b005b341561013857600080fd5b610140610464565b604051808273ffffffffffffffffffffffffffffffffffffffff1673ffffffffffffffffffffffffffffffffffffffff16815260200191505060405180910390f35b341561018d57600080fd5b6101cf60048080356000191690602001909190803573ffffffffffffffffffffffffffffffffffffffff16906020019091908035906020019091905050610489565b005b34156101dc57600080fd5b610227600480803573ffffffffffffffffffffffffffffffffffffffff1690602001909190803573ffffffffffffffffffffffffffffffffffffffff16906020019091905050610564565b005b341561023457600080fd5b610288600480803573ffffffffffffffffffffffffffffffffffffffff1690602001909190803573ffffffffffffffffffffffffffffffffffffffff1690602001909190803590602001909190505061065a565b005b6000809054906101000a900473ffffffffffffffffffffffffffffffffffffffff1673ffffffffffffffffffffffffffffffffffffffff163373ffffffffffffffffffffffffffffffffffffffff161415156102e557600080fd5b7f4e09303ea9c3932854b42432aa9f65348205f9681747864bf122101b353715038160405180826000191660001916815260200191505060405180910390a150565b6000809054906101000a900473ffffffffffffffffffffffffffffffffffffffff1673ffffffffffffffffffffffffffffffffffffffff163373ffffffffffffffffffffffffffffffffffffffff1614151561038257600080fd5b7fe35c2d3051c43ffde11a50635c7cc12be825306bd6d1371a0cc4a68715dcef918585858585604051808673ffffffffffffffffffffffffffffffffffffffff1673ffffffffffffffffffffffffffffffffffffffff1681526020018573ffffffffffffffffffffffffffffffffffffffff1673ffffffffffffffffffffffffffffffffffffffff1681526020018481526020018381526020018273ffffffffffffffffffffffffffffffffffffffff1673ffffffffffffffffffffffffffffffffffffffff1681526020019550505050505060405180910390a15050505050565b6000809054906101000a900473ffffffffffffffffffffffffffffffffffffffff1681565b6000809054906101000a900473ffffffffffffffffffffffffffffffffffffffff1673ffffffffffffffffffffffffffffffffffffffff163373ffffffffffffffffffffffffffffffffffffffff161415156104e457600080fd5b7f6a4e8cf0cd369785e678ce2e25346cb47fe3b673bce35689a10e5080871d3f758383836040518084600019166000191681526020018373ffffffffffffffffffffffffffffffffffffffff1673ffffffffffffffffffffffffffffffffffffffff168152602001828152602001935050505060405180910390a1505050565b6000809054906101000a900473ffffffffffffffffffffffffffffffffffffffff1673ffffffffffffffffffffffffffffffffffffffff163373ffffffffffffffffffffffffffffffffffffffff161415156105bf57600080fd5b7f4f76d3f7bc060537166a98604f737ee9931686a2209bea6ef5b3f39576fafeb18282604051808373ffffffffffffffffffffffffffffffffffffffff1673ffffffffffffffffffffffffffffffffffffffff1681526020018273ffffffffffffffffffffffffffffffffffffffff1673ffffffffffffffffffffffffffffffffffffffff1681526020019250505060405180910390a15050565b6000809054906101000a900473ffffffffffffffffffffffffffffffffffffffff1673ffffffffffffffffffffffffffffffffffffffff163373ffffffffffffffffffffffffffffffffffffffff161415156106b557600080fd5b7fa34cc4a76e6a08cde6b3bbc43dd4d7df448e4e54a4fb6a9386d411334b11dc59838383604051808473ffffffffffffffffffffffffffffffffffffffff1673ffffffffffffffffffffffffffffffffffffffff1681526020018373ffffffffffffffffffffffffffffffffffffffff1673ffffffffffffffffffffffffffffffffffffffff168152602001828152602001935050505060405180910390a15050505600a165627a7a72305820c8a5afd6f174028de048e0a9623638e01e3dc54768b391eef3ef04bf26b737910029",
  "source": "pragma solidity ^0.4.12;\n\nimport \"./Inventory.sol\";\nimport \"./Libraries/Random.sol\";\nimport \"./Libraries/MarketLib.sol\";\nimport \"./Libraries/SafeMath.sol\";\nimport \"./Token/EIP20Interface.sol\";\nimport \"./MarketEvents.sol\";\n\ncontract Market {\n    using MarketLib for MarketLib.Offer;\n\n    // ----------------------------------------------\n    // ---------------- Globals ---------------------\n    // ----------------------------------------------\n\n    address public owner;\n \n    MarketEvents public marketEvents;\n\n    // Merchant => Inventory\n    mapping (address => address) public inventories;\n\n    // tradeid => Offer - lists all trades \n    mapping (bytes32 => MarketLib.Offer) public trades;\n\n    // Merchant => (TradeID => Offer) - List all trades grouped by merchant\n    mapping (address => bytes32[]) public tradesByMerchant;\n\n    // All trade ids\n    bytes32[] tradeIds;\n\n    function Market() public {\n        owner = msg.sender;\n        marketEvents = new MarketEvents();\n    }\n\n    // ----------------------------------------------\n    // ----------- Internal Functions ---------------\n    // ----------------------------------------------\n\n    // Check how many of an asset a merchant has locked in offers\n    function _getOutstandingValue (address asset, address merchant) private view returns (uint256 value) {\n        bytes32[] memory merchantTrades = tradesByMerchant[merchant];\n  \n        uint outstandingValue;\n\n        // If the merchant has made no trades this doesn't matter\n        if (merchantTrades.length > 0) {\n            for (uint i = 0; i < merchantTrades.length; i++) {\n                MarketLib.Offer memory offer = trades[merchantTrades[i]];\n                if (offer.offer == asset && !offer.settled) {\n                    outstandingValue = SafeMath.add(outstandingValue, offer.offerValue);\n                }\n            }\n        }\n\n        return outstandingValue;\n    }\n\n    // Get the total balance of an asset a merchant has in their inventory\n    function _getBalance(address asset, address merchant) private returns (uint256 _balance) {\n        return EIP20Interface(asset).balanceOf(inventories[merchant]);\n    }\n\n    // ----------------------------------------------   \n    // ------------ Getter Functions ----------------\n    // ----------------------------------------------\n\n    function getTradesByMerchant (address merchant) external constant returns (bytes32[] _trades) {\n        return tradesByMerchant[merchant];\n    }\n\n    function getTrades () external constant returns (bytes32[] _trades) {\n        return tradeIds;\n    }\n\n    function getTrade (bytes32 tradeId) external constant returns (\n        address offer,\n        address request,\n        uint256 offerValue,\n        uint256 requestValue,\n        address merchant,\n        address customer,\n        uint settleTime,\n        bool settled\n    ) {\n        MarketLib.Offer memory _offer = trades[tradeId];\n        return (\n            _offer.offer,\n            _offer.request,\n            _offer.offerValue,\n            _offer.requestValue,\n            _offer.merchant,\n            _offer.customer,\n            _offer.settleTime,\n            _offer.settled\n        );\n    }\n\n    function getMyInventory () external constant returns (address inventory) {\n        return inventories[msg.sender];\n    }\n    \n    // ----------------------------------------------   \n    // ------------ Public Functions ----------------\n    // ----------------------------------------------\n\n    // Allow merchant to settle a trade enabling withdrawal of assets\n    function settleTrade (bytes32 tradeId) external {\n        MarketLib.Offer memory offer = trades[tradeId];\n\n        // Only the merchant can settle a trade prematurely\n        require(msg.sender == offer.merchant);\n\n        offer.settled = true;\n        trades[tradeId].settled = true;\n\n        // TradeCacnelled event emitted\n        marketEvents.tradeCancelled(tradeId);\n    }\n\n    // Allow safe withdrawal of un-utilized assets\n    function withdrawal (address asset, uint256 value) public {\n        // This is the total number of this asset locked up in trades\n        uint256 outstandingValue = _getOutstandingValue(asset, msg.sender);\n        uint balance = _getBalance(asset, msg.sender);\n\n        // Ensure deducting this value would not cause offers to become unfillable\n        require(SafeMath.sub(balance, outstandingValue) >= value);\n\n        // Safely withdrawal assets\n        Inventory(inventories[msg.sender]).withdrawal(asset, value);\n\n        // Emit FundsWithdrawaled event\n        marketEvents.fundsWithdrawaled(msg.sender, asset, value);\n    }\n    \n    // Create a new trade on the market\n    function makeOffer(\n        address _offer,\n        address _request,\n        uint256 _offerValue,\n        uint256 _requestValue\n    ) \n        external \n    {\n        // Psuedo random trade identifier\n        bytes32 tradeId = keccak256(Random.number(1333337));\n\n        MarketLib.Offer memory offer = MarketLib.Offer({\n            offer: _offer,\n            request: _request,\n            offerValue: _offerValue,\n            requestValue: _requestValue,\n            merchant: msg.sender,\n            customer: 0x0,\n            settleTime: 0,\n            settled: false\n        });\n\n        // Require merchant to have enough of the item they \n        // wish to offer in their inventory\n        uint256 balance = _getBalance(_offer, msg.sender);\n        uint256 outstandingValue = _getOutstandingValue(_offer, msg.sender);\n\n        require(SafeMath.sub(balance, outstandingValue) >= _offerValue);\n\n        // Update trade references\n        tradeIds.push(tradeId);\n        trades[tradeId] = offer;\n        tradesByMerchant[msg.sender].push(tradeId);\n\n        // TradeListed event emitted\n        marketEvents.tradeListed(\n            offer.offer,\n            offer.request,\n            offer.offerValue,\n            offer.requestValue,\n            offer.merchant\n        );\n    }\n\n    // Fulfill a trade on the market\n    function fillOffer(bytes32 tradeId) external {\n        MarketLib.Offer memory offer = trades[tradeId];\n        \n        // Ensure customer can fulfill trade\n        uint256 balance = _getBalance(msg.sender, offer.request);\n        uint256 outstandingValue = _getOutstandingValue(offer.request, msg.sender);\n\n        require(SafeMath.sub(balance, outstandingValue) >= offer.requestValue);\n\n        // Ensure this trade is still active\n        require(!offer.settled);\n\n        Inventory merchantInventory = Inventory(inventories[offer.merchant]);\n        Inventory customerInventory = Inventory(inventories[msg.sender]);\n\n        // Send offer to customer\n        merchantInventory.transfer(\n            msg.sender,\n            offer.offer,\n            offer.offerValue\n        );\n\n        // Send request to merchant\n        customerInventory.transfer(\n            offer.merchant, \n            offer.offer, \n            offer.offerValue\n        );\n\n        // Update the trade to fulfilled status\n        offer.customer = msg.sender;\n        offer.settled = true;\n        offer.settleTime = now;\n        trades[tradeId] = offer;\n\n        // Emit TradeFullfilled event\n        marketEvents.tradeFulfilled(tradeId, msg.sender, now);\n    }\n\n    // Fallback is used to create a new inventory for merchant\n    function () public payable {\n        require(msg.value == 0);\n        require(inventories[msg.sender] == 0x0);\n\n        inventories[msg.sender] = address(\n            new Inventory(msg.sender)\n        );\n\n        // Inventory created event\n        marketEvents.inventoryCreated(msg.sender, inventories[msg.sender]);\n    }\n}",
  "sourcePath": "/Users/matt/Documents/LootSafe/LootSafe.Market.module/contracts/Market.sol",
  "compiler": {
    "name": "solc",
    "version": "0.4.18+commit.9cf6e910.Emscripten.clang"
  },
  "schemaVersion": "1.0.1",
  "updatedAt": "2018-02-08T06:07:54.109Z"
}