{
  "contractName": "MarketEvents",
  "abi": [
    {
      "constant": false,
      "inputs": [
        {
          "name": "tradeId",
          "type": "bytes32"
        }
      ],
      "name": "tradeCancelled",
      "outputs": [],
      "payable": false,
      "stateMutability": "nonpayable",
      "type": "function"
    },
    {
      "constant": false,
      "inputs": [
        {
          "name": "offer",
          "type": "address"
        },
        {
          "name": "request",
          "type": "address"
        },
        {
          "name": "offerValue",
          "type": "uint256"
        },
        {
          "name": "requestValue",
          "type": "uint256"
        },
        {
          "name": "merchant",
          "type": "address"
        }
      ],
      "name": "tradeListed",
      "outputs": [],
      "payable": false,
      "stateMutability": "nonpayable",
      "type": "function"
    },
    {
      "constant": true,
      "inputs": [],
      "name": "market",
      "outputs": [
        {
          "name": "",
          "type": "address"
        }
      ],
      "payable": false,
      "stateMutability": "view",
      "type": "function"
    },
    {
      "constant": false,
      "inputs": [
        {
          "name": "tradeId",
          "type": "bytes32"
        },
        {
          "name": "customer",
          "type": "address"
        },
        {
          "name": "at",
          "type": "uint256"
        }
      ],
      "name": "tradeFulfilled",
      "outputs": [],
      "payable": false,
      "stateMutability": "nonpayable",
      "type": "function"
    },
    {
      "constant": false,
      "inputs": [
        {
          "name": "merchant",
          "type": "address"
        },
        {
          "name": "inventory",
          "type": "address"
        }
      ],
      "name": "inventoryCreated",
      "outputs": [],
      "payable": false,
      "stateMutability": "nonpayable",
      "type": "function"
    },
    {
      "constant": false,
      "inputs": [
        {
          "name": "merchant",
          "type": "address"
        },
        {
          "name": "asset",
          "type": "address"
        },
        {
          "name": "value",
          "type": "uint256"
        }
      ],
      "name": "fundsWithdrawaled",
      "outputs": [],
      "payable": false,
      "stateMutability": "nonpayable",
      "type": "function"
    },
    {
      "inputs": [],
      "payable": false,
      "stateMutability": "nonpayable",
      "type": "constructor"
    },
    {
      "anonymous": false,
      "inputs": [
        {
          "indexed": false,
          "name": "merchant",
          "type": "address"
        },
        {
          "indexed": false,
          "name": "inventory",
          "type": "address"
        }
      ],
      "name": "InventoryCreated",
      "type": "event"
    },
    {
      "anonymous": false,
      "inputs": [
        {
          "indexed": false,
          "name": "merchant",
          "type": "address"
        },
        {
          "indexed": false,
          "name": "asset",
          "type": "address"
        },
        {
          "indexed": false,
          "name": "value",
          "type": "uint256"
        }
      ],
      "name": "FundsWithdrawaled",
      "type": "event"
    },
    {
      "anonymous": false,
      "inputs": [
        {
          "indexed": false,
          "name": "offer",
          "type": "address"
        },
        {
          "indexed": false,
          "name": "request",
          "type": "address"
        },
        {
          "indexed": false,
          "name": "offerValue",
          "type": "uint256"
        },
        {
          "indexed": false,
          "name": "requestValue",
          "type": "uint256"
        },
        {
          "indexed": false,
          "name": "merchant",
          "type": "address"
        }
      ],
      "name": "TradeListed",
      "type": "event"
    },
    {
      "anonymous": false,
      "inputs": [
        {
          "indexed": false,
          "name": "tradeId",
          "type": "bytes32"
        }
      ],
      "name": "TradeCancelled",
      "type": "event"
    },
    {
      "anonymous": false,
      "inputs": [
        {
          "indexed": false,
          "name": "tradeId",
          "type": "bytes32"
        },
        {
          "indexed": false,
          "name": "customer",
          "type": "address"
        },
        {
          "indexed": false,
          "name": "at",
          "type": "uint256"
        }
      ],
      "name": "TradeFulfilled",
      "type": "event"
    }
  ],
  "bytecode": "0x6060604052341561000f57600080fd5b336000806101000a81548173ffffffffffffffffffffffffffffffffffffffff021916908373ffffffffffffffffffffffffffffffffffffffff1602179055506107858061005e6000396000f300606060405260043610610078576000357c0100000000000000000000000000000000000000000000000000000000900463ffffffff16806340f77e1d1461007d57806342885d11146100a457806380f556051461012d578063926b71df1461018257806397020b36146101d1578063e568f81514610229575b600080fd5b341561008857600080fd5b6100a260048080356000191690602001909190505061028a565b005b34156100af57600080fd5b61012b600480803573ffffffffffffffffffffffffffffffffffffffff1690602001909190803573ffffffffffffffffffffffffffffffffffffffff1690602001909190803590602001909190803590602001909190803573ffffffffffffffffffffffffffffffffffffffff16906020019091905050610327565b005b341561013857600080fd5b610140610464565b604051808273ffffffffffffffffffffffffffffffffffffffff1673ffffffffffffffffffffffffffffffffffffffff16815260200191505060405180910390f35b341561018d57600080fd5b6101cf60048080356000191690602001909190803573ffffffffffffffffffffffffffffffffffffffff16906020019091908035906020019091905050610489565b005b34156101dc57600080fd5b610227600480803573ffffffffffffffffffffffffffffffffffffffff1690602001909190803573ffffffffffffffffffffffffffffffffffffffff16906020019091905050610564565b005b341561023457600080fd5b610288600480803573ffffffffffffffffffffffffffffffffffffffff1690602001909190803573ffffffffffffffffffffffffffffffffffffffff1690602001909190803590602001909190505061065a565b005b6000809054906101000a900473ffffffffffffffffffffffffffffffffffffffff1673ffffffffffffffffffffffffffffffffffffffff163373ffffffffffffffffffffffffffffffffffffffff161415156102e557600080fd5b7f4e09303ea9c3932854b42432aa9f65348205f9681747864bf122101b353715038160405180826000191660001916815260200191505060405180910390a150565b6000809054906101000a900473ffffffffffffffffffffffffffffffffffffffff1673ffffffffffffffffffffffffffffffffffffffff163373ffffffffffffffffffffffffffffffffffffffff1614151561038257600080fd5b7fe35c2d3051c43ffde11a50635c7cc12be825306bd6d1371a0cc4a68715dcef918585858585604051808673ffffffffffffffffffffffffffffffffffffffff1673ffffffffffffffffffffffffffffffffffffffff1681526020018573ffffffffffffffffffffffffffffffffffffffff1673ffffffffffffffffffffffffffffffffffffffff1681526020018481526020018381526020018273ffffffffffffffffffffffffffffffffffffffff1673ffffffffffffffffffffffffffffffffffffffff1681526020019550505050505060405180910390a15050505050565b6000809054906101000a900473ffffffffffffffffffffffffffffffffffffffff1681565b6000809054906101000a900473ffffffffffffffffffffffffffffffffffffffff1673ffffffffffffffffffffffffffffffffffffffff163373ffffffffffffffffffffffffffffffffffffffff161415156104e457600080fd5b7f6a4e8cf0cd369785e678ce2e25346cb47fe3b673bce35689a10e5080871d3f758383836040518084600019166000191681526020018373ffffffffffffffffffffffffffffffffffffffff1673ffffffffffffffffffffffffffffffffffffffff168152602001828152602001935050505060405180910390a1505050565b6000809054906101000a900473ffffffffffffffffffffffffffffffffffffffff1673ffffffffffffffffffffffffffffffffffffffff163373ffffffffffffffffffffffffffffffffffffffff161415156105bf57600080fd5b7f4f76d3f7bc060537166a98604f737ee9931686a2209bea6ef5b3f39576fafeb18282604051808373ffffffffffffffffffffffffffffffffffffffff1673ffffffffffffffffffffffffffffffffffffffff1681526020018273ffffffffffffffffffffffffffffffffffffffff1673ffffffffffffffffffffffffffffffffffffffff1681526020019250505060405180910390a15050565b6000809054906101000a900473ffffffffffffffffffffffffffffffffffffffff1673ffffffffffffffffffffffffffffffffffffffff163373ffffffffffffffffffffffffffffffffffffffff161415156106b557600080fd5b7fa34cc4a76e6a08cde6b3bbc43dd4d7df448e4e54a4fb6a9386d411334b11dc59838383604051808473ffffffffffffffffffffffffffffffffffffffff1673ffffffffffffffffffffffffffffffffffffffff1681526020018373ffffffffffffffffffffffffffffffffffffffff1673ffffffffffffffffffffffffffffffffffffffff168152602001828152602001935050505060405180910390a15050505600a165627a7a72305820c8a5afd6f174028de048e0a9623638e01e3dc54768b391eef3ef04bf26b737910029",
  "source": "pragma solidity ^0.4.12;\n\nimport \"./Market.sol\";\n\ncontract MarketEvents {\n    Market public market;\n\n    modifier onlyMarket {\n        require(msg.sender == address(market));\n        _;\n    }\n\n    event InventoryCreated (address merchant, address inventory);\n\n    event FundsWithdrawaled (address merchant, address asset, uint256 value);\n\n    event TradeListed (\n        address offer,\n        address request, \n        uint256 offerValue,\n        uint256 requestValue,\n        address merchant\n    );\n\n    event TradeCancelled (bytes32 tradeId);\n    event TradeFulfilled (bytes32 tradeId, address customer, uint at);\n\n    function MarketEvents () public {\n        market = Market(msg.sender);\n    }\n\n    function tradeListed(\n        address offer,\n        address request, \n        uint256 offerValue,\n        uint256 requestValue,\n        address merchant\n    )\n        public onlyMarket\n    {\n        TradeListed(\n            offer,\n            request,\n            offerValue,\n            requestValue,\n            merchant\n        );\n    }\n\n    function tradeCancelled(bytes32 tradeId) public onlyMarket {\n        TradeCancelled(tradeId);\n    }\n\n    function tradeFulfilled(bytes32 tradeId, address customer, uint at) public onlyMarket {\n        TradeFulfilled(tradeId, customer, at);\n    }\n    \n    function inventoryCreated(address merchant, address inventory) public onlyMarket {\n        InventoryCreated(merchant, inventory);\n    }\n    \n    function fundsWithdrawaled(address merchant, address asset, uint256 value) public onlyMarket {\n        FundsWithdrawaled(merchant, asset, value);\n    }\n}",
  "sourcePath": "/Users/matt/Documents/LootSafe/LootSafe.Market.module/contracts/MarketEvents.sol",
  "compiler": {
    "name": "solc",
    "version": "0.4.18+commit.9cf6e910.Emscripten.clang"
  },
  "schemaVersion": "1.0.1",
  "updatedAt": "2018-02-08T06:07:54.102Z"
}